{
  "_format": "hh-sol-artifact-1",
  "contractName": "JKPAdapter",
  "sourceName": "contracts/JKPAdapter.sol",
  "abi": [
    {
      "inputs": [],
      "stateMutability": "nonpayable",
      "type": "constructor"
    },
    {
      "anonymous": false,
      "inputs": [
        {
          "indexed": false,
          "internalType": "address",
          "name": "player",
          "type": "address"
        },
        {
          "indexed": false,
          "internalType": "string",
          "name": "status",
          "type": "string"
        }
      ],
      "name": "Played",
      "type": "event"
    },
    {
      "inputs": [],
      "name": "getAddress",
      "outputs": [
        {
          "internalType": "address",
          "name": "",
          "type": "address"
        }
      ],
      "stateMutability": "view",
      "type": "function"
    },
    {
      "inputs": [],
      "name": "getBalance",
      "outputs": [
        {
          "internalType": "uint256",
          "name": "",
          "type": "uint256"
        }
      ],
      "stateMutability": "view",
      "type": "function"
    },
    {
      "inputs": [],
      "name": "getBid",
      "outputs": [
        {
          "internalType": "uint256",
          "name": "",
          "type": "uint256"
        }
      ],
      "stateMutability": "view",
      "type": "function"
    },
    {
      "inputs": [],
      "name": "getStatus",
      "outputs": [
        {
          "internalType": "string",
          "name": "",
          "type": "string"
        }
      ],
      "stateMutability": "view",
      "type": "function"
    },
    {
      "inputs": [],
      "name": "getcomission",
      "outputs": [
        {
          "internalType": "uint8",
          "name": "",
          "type": "uint8"
        }
      ],
      "stateMutability": "view",
      "type": "function"
    },
    {
      "inputs": [],
      "name": "owner",
      "outputs": [
        {
          "internalType": "address",
          "name": "",
          "type": "address"
        }
      ],
      "stateMutability": "view",
      "type": "function"
    },
    {
      "inputs": [
        {
          "internalType": "string",
          "name": "Choice_string",
          "type": "string"
        }
      ],
      "name": "play1",
      "outputs": [],
      "stateMutability": "payable",
      "type": "function"
    },
    {
      "inputs": [
        {
          "internalType": "string",
          "name": "Choice_string2",
          "type": "string"
        }
      ],
      "name": "play2",
      "outputs": [],
      "stateMutability": "payable",
      "type": "function"
    },
    {
      "inputs": [
        {
          "internalType": "uint256",
          "name": "newBid",
          "type": "uint256"
        }
      ],
      "name": "setBid",
      "outputs": [],
      "stateMutability": "nonpayable",
      "type": "function"
    },
    {
      "inputs": [
        {
          "internalType": "uint8",
          "name": "newComissionPercent",
          "type": "uint8"
        }
      ],
      "name": "setcomission",
      "outputs": [],
      "stateMutability": "nonpayable",
      "type": "function"
    },
    {
      "inputs": [
        {
          "internalType": "address",
          "name": "newImplementation",
          "type": "address"
        }
      ],
      "name": "upgrade",
      "outputs": [],
      "stateMutability": "nonpayable",
      "type": "function"
    },
    {
      "inputs": [],
      "name": "win",
      "outputs": [
        {
          "internalType": "string",
          "name": "",
          "type": "string"
        }
      ],
      "stateMutability": "nonpayable",
      "type": "function"
    }
  ],
  "bytecode": "0x60a0604052348015600f57600080fd5b503373ffffffffffffffffffffffffffffffffffffffff1660808173ffffffffffffffffffffffffffffffffffffffff16815250506080516117556100746000396000818161028e01528181610a4901528181610d040152610eaf01526117556000f3fe6080604052600436106100a75760003560e01c80637fbcd301116100645780637fbcd301146101ac5780638da5cb5b146101c857806391b8df0e146101f35780639424f3ad1461020f578063c0ca72091461023a578063cef55b9a14610263576100a7565b80630900f010146100ac578063099a019d146100d557806312065fe01461010057806338cc48311461012b578063473ca96c146101565780634e69d56014610181575b600080fd5b3480156100b857600080fd5b506100d360048036038101906100ce91906110ca565b61028c565b005b3480156100e157600080fd5b506100ea6103cc565b6040516100f79190611110565b60405180910390f35b34801561010c57600080fd5b506101156104f0565b6040516101229190611110565b60405180910390f35b34801561013757600080fd5b50610140610614565b60405161014d919061113a565b60405180910390f35b34801561016257600080fd5b5061016b61063d565b60405161017891906111e5565b60405180910390f35b34801561018d57600080fd5b506101966107aa565b6040516101a391906111e5565b60405180910390f35b6101c660048036038101906101c1919061133c565b6108d4565b005b3480156101d457600080fd5b506101dd610a47565b6040516101ea919061113a565b60405180910390f35b61020d6004803603810190610208919061133c565b610a6b565b005b34801561021b57600080fd5b50610224610bde565b60405161023191906113a1565b60405180910390f35b34801561024657600080fd5b50610261600480360381019061025c91906113e8565b610d02565b005b34801561026f57600080fd5b5061028a60048036038101906102859190611441565b610ead565b005b7f000000000000000000000000000000000000000000000000000000000000000073ffffffffffffffffffffffffffffffffffffffff163373ffffffffffffffffffffffffffffffffffffffff161461031a576040517f08c379a0000000000000000000000000000000000000000000000000000000008152600401610311906114ba565b60405180910390fd5b600073ffffffffffffffffffffffffffffffffffffffff168173ffffffffffffffffffffffffffffffffffffffff1603610389576040517f08c379a000000000000000000000000000000000000000000000000000000000815260040161038090611526565b60405180910390fd5b806000806101000a81548173ffffffffffffffffffffffffffffffffffffffff021916908373ffffffffffffffffffffffffffffffffffffffff16021790555050565b60008073ffffffffffffffffffffffffffffffffffffffff1660008054906101000a900473ffffffffffffffffffffffffffffffffffffffff1673ffffffffffffffffffffffffffffffffffffffff160361045c576040517f08c379a000000000000000000000000000000000000000000000000000000000815260040161045390611592565b60405180910390fd5b60008054906101000a900473ffffffffffffffffffffffffffffffffffffffff1673ffffffffffffffffffffffffffffffffffffffff1663099a019d6040518163ffffffff1660e01b8152600401602060405180830381865afa1580156104c7573d6000803e3d6000fd5b505050506040513d601f19601f820116820180604052508101906104eb91906115c7565b905090565b60008073ffffffffffffffffffffffffffffffffffffffff1660008054906101000a900473ffffffffffffffffffffffffffffffffffffffff1673ffffffffffffffffffffffffffffffffffffffff1603610580576040517f08c379a000000000000000000000000000000000000000000000000000000000815260040161057790611592565b60405180910390fd5b60008054906101000a900473ffffffffffffffffffffffffffffffffffffffff1673ffffffffffffffffffffffffffffffffffffffff166312065fe06040518163ffffffff1660e01b8152600401602060405180830381865afa1580156105eb573d6000803e3d6000fd5b505050506040513d601f19601f8201168201806040525081019061060f91906115c7565b905090565b60008060009054906101000a900473ffffffffffffffffffffffffffffffffffffffff16905090565b6060600073ffffffffffffffffffffffffffffffffffffffff1660008054906101000a900473ffffffffffffffffffffffffffffffffffffffff1673ffffffffffffffffffffffffffffffffffffffff16036106ce576040517f08c379a00000000000000000000000000000000000000000000000000000000081526004016106c590611592565b60405180910390fd5b60008060009054906101000a900473ffffffffffffffffffffffffffffffffffffffff1673ffffffffffffffffffffffffffffffffffffffff1663473ca96c6040518163ffffffff1660e01b81526004016000604051808303816000875af115801561073e573d6000803e3d6000fd5b505050506040513d6000823e3d601f19601f820116820180604052508101906107679190611664565b90507f447330510e69ee5049d721803ae5b8d7584b90ba51ada2a0b57b699d86b83bfd60008260405161079b9291906116ad565b60405180910390a18091505090565b6060600073ffffffffffffffffffffffffffffffffffffffff1660008054906101000a900473ffffffffffffffffffffffffffffffffffffffff1673ffffffffffffffffffffffffffffffffffffffff160361083b576040517f08c379a000000000000000000000000000000000000000000000000000000000815260040161083290611592565b60405180910390fd5b60008054906101000a900473ffffffffffffffffffffffffffffffffffffffff1673ffffffffffffffffffffffffffffffffffffffff16634e69d5606040518163ffffffff1660e01b8152600401600060405180830381865afa1580156108a6573d6000803e3d6000fd5b505050506040513d6000823e3d601f19601f820116820180604052508101906108cf9190611664565b905090565b600073ffffffffffffffffffffffffffffffffffffffff1660008054906101000a900473ffffffffffffffffffffffffffffffffffffffff1673ffffffffffffffffffffffffffffffffffffffff1603610963576040517f08c379a000000000000000000000000000000000000000000000000000000000815260040161095a90611592565b60405180910390fd5b60008060009054906101000a900473ffffffffffffffffffffffffffffffffffffffff1673ffffffffffffffffffffffffffffffffffffffff16637fbcd30134846040518363ffffffff1660e01b81526004016109c091906111e5565b60006040518083038185885af11580156109de573d6000803e3d6000fd5b50505050506040513d6000823e3d601f19601f82011682018060405250810190610a089190611664565b90507f447330510e69ee5049d721803ae5b8d7584b90ba51ada2a0b57b699d86b83bfd3382604051610a3b9291906116ad565b60405180910390a15050565b7f000000000000000000000000000000000000000000000000000000000000000081565b600073ffffffffffffffffffffffffffffffffffffffff1660008054906101000a900473ffffffffffffffffffffffffffffffffffffffff1673ffffffffffffffffffffffffffffffffffffffff1603610afa576040517f08c379a0000000000000000000000000000000000000000000000000000000008152600401610af190611592565b60405180910390fd5b60008060009054906101000a900473ffffffffffffffffffffffffffffffffffffffff1673ffffffffffffffffffffffffffffffffffffffff166391b8df0e34846040518363ffffffff1660e01b8152600401610b5791906111e5565b60006040518083038185885af1158015610b75573d6000803e3d6000fd5b50505050506040513d6000823e3d601f19601f82011682018060405250810190610b9f9190611664565b90507f447330510e69ee5049d721803ae5b8d7584b90ba51ada2a0b57b699d86b83bfd3382604051610bd29291906116ad565b60405180910390a15050565b60008073ffffffffffffffffffffffffffffffffffffffff1660008054906101000a900473ffffffffffffffffffffffffffffffffffffffff1673ffffffffffffffffffffffffffffffffffffffff1603610c6e576040517f08c379a0000000000000000000000000000000000000000000000000000000008152600401610c6590611592565b60405180910390fd5b60008054906101000a900473ffffffffffffffffffffffffffffffffffffffff1673ffffffffffffffffffffffffffffffffffffffff16639424f3ad6040518163ffffffff1660e01b8152600401602060405180830381865afa158015610cd9573d6000803e3d6000fd5b505050506040513d601f19601f82011682018060405250810190610cfd91906116f2565b905090565b7f000000000000000000000000000000000000000000000000000000000000000073ffffffffffffffffffffffffffffffffffffffff163373ffffffffffffffffffffffffffffffffffffffff1614610d90576040517f08c379a0000000000000000000000000000000000000000000000000000000008152600401610d87906114ba565b60405180910390fd5b600073ffffffffffffffffffffffffffffffffffffffff1660008054906101000a900473ffffffffffffffffffffffffffffffffffffffff1673ffffffffffffffffffffffffffffffffffffffff1603610e1f576040517f08c379a0000000000000000000000000000000000000000000000000000000008152600401610e1690611592565b60405180910390fd5b60008054906101000a900473ffffffffffffffffffffffffffffffffffffffff1673ffffffffffffffffffffffffffffffffffffffff1663c0ca7209826040518263ffffffff1660e01b8152600401610e7891906113a1565b600060405180830381600087803b158015610e9257600080fd5b505af1158015610ea6573d6000803e3d6000fd5b5050505050565b7f000000000000000000000000000000000000000000000000000000000000000073ffffffffffffffffffffffffffffffffffffffff163373ffffffffffffffffffffffffffffffffffffffff1614610f3b576040517f08c379a0000000000000000000000000000000000000000000000000000000008152600401610f32906114ba565b60405180910390fd5b600073ffffffffffffffffffffffffffffffffffffffff1660008054906101000a900473ffffffffffffffffffffffffffffffffffffffff1673ffffffffffffffffffffffffffffffffffffffff1603610fca576040517f08c379a0000000000000000000000000000000000000000000000000000000008152600401610fc190611592565b60405180910390fd5b60008054906101000a900473ffffffffffffffffffffffffffffffffffffffff1673ffffffffffffffffffffffffffffffffffffffff1663cef55b9a826040518263ffffffff1660e01b81526004016110239190611110565b600060405180830381600087803b15801561103d57600080fd5b505af1158015611051573d6000803e3d6000fd5b5050505050565b6000604051905090565b600080fd5b600080fd5b600073ffffffffffffffffffffffffffffffffffffffff82169050919050565b60006110978261106c565b9050919050565b6110a78161108c565b81146110b257600080fd5b50565b6000813590506110c48161109e565b92915050565b6000602082840312156110e0576110df611062565b5b60006110ee848285016110b5565b91505092915050565b6000819050919050565b61110a816110f7565b82525050565b60006020820190506111256000830184611101565b92915050565b6111348161108c565b82525050565b600060208201905061114f600083018461112b565b92915050565b600081519050919050565b600082825260208201905092915050565b60005b8381101561118f578082015181840152602081019050611174565b60008484015250505050565b6000601f19601f8301169050919050565b60006111b782611155565b6111c18185611160565b93506111d1818560208601611171565b6111da8161119b565b840191505092915050565b600060208201905081810360008301526111ff81846111ac565b905092915050565b600080fd5b600080fd5b7f4e487b7100000000000000000000000000000000000000000000000000000000600052604160045260246000fd5b6112498261119b565b810181811067ffffffffffffffff8211171561126857611267611211565b5b80604052505050565b600061127b611058565b90506112878282611240565b919050565b600067ffffffffffffffff8211156112a7576112a6611211565b5b6112b08261119b565b9050602081019050919050565b82818337600083830152505050565b60006112df6112da8461128c565b611271565b9050828152602081018484840111156112fb576112fa61120c565b5b6113068482856112bd565b509392505050565b600082601f83011261132357611322611207565b5b81356113338482602086016112cc565b91505092915050565b60006020828403121561135257611351611062565b5b600082013567ffffffffffffffff8111156113705761136f611067565b5b61137c8482850161130e565b91505092915050565b600060ff82169050919050565b61139b81611385565b82525050565b60006020820190506113b66000830184611392565b92915050565b6113c581611385565b81146113d057600080fd5b50565b6000813590506113e2816113bc565b92915050565b6000602082840312156113fe576113fd611062565b5b600061140c848285016113d3565b91505092915050565b61141e816110f7565b811461142957600080fd5b50565b60008135905061143b81611415565b92915050565b60006020828403121561145757611456611062565b5b60006114658482850161142c565b91505092915050565b7f596f7520646f206e6f742068617665207065726d697373696f6e000000000000600082015250565b60006114a4601a83611160565b91506114af8261146e565b602082019050919050565b600060208201905081810360008301526114d381611497565b9050919050565b7f456d7074792061646472657373206973206e6f74207065726d69747465640000600082015250565b6000611510601e83611160565b915061151b826114da565b602082019050919050565b6000602082019050818103600083015261153f81611503565b9050919050565b7f436f6e7472616374206e6f7420696e697469616c697a65640000000000000000600082015250565b600061157c601883611160565b915061158782611546565b602082019050919050565b600060208201905081810360008301526115ab8161156f565b9050919050565b6000815190506115c181611415565b92915050565b6000602082840312156115dd576115dc611062565b5b60006115eb848285016115b2565b91505092915050565b60006116076116028461128c565b611271565b9050828152602081018484840111156116235761162261120c565b5b61162e848285611171565b509392505050565b600082601f83011261164b5761164a611207565b5b815161165b8482602086016115f4565b91505092915050565b60006020828403121561167a57611679611062565b5b600082015167ffffffffffffffff81111561169857611697611067565b5b6116a484828501611636565b91505092915050565b60006040820190506116c2600083018561112b565b81810360208301526116d481846111ac565b90509392505050565b6000815190506116ec816113bc565b92915050565b60006020828403121561170857611707611062565b5b6000611716848285016116dd565b9150509291505056fea2646970667358221220bbf1593d25c1d18cd738bcdc086bccd9765a5b5b26cede48ee3dd03dd809067464736f6c634300081c0033",
  "linkReferences": {},
  "deployedLinkReferences": {}
}